:020000040000FA
:0400000087EF07F08F
:08000800056ED8CF06F0E0CF31
:1000100007F00001E9CF0DF0EACF08F0E1CF09F0D9
:10002000E2CF0AF0D9CF0BF0DACF0CF0F3CF14F017
:10003000F4CF15F0FACF16F000C00FF001C010F0A9
:1000400002C011F003C012F004C013F0A0AA2CEFFC
:1000500000F0A1BACAEF06F00FC000F010C001F026
:1000600011C002F012C003F013C004F00E8E0DC0D8
:10007000E9FF08C0EAFF09C0E1FF0AC0E2FF0BC0C8
:10008000D9FF0CC0DAFF14C0F3FF15C0F4FF16C08F
:10009000FAFF055007C0E0FF06C0D8FF1000F76A5E
:1000A000AE0FF66E000EF7220900F55012000403A1
:1000B0000100000000000000000000000000F76ADE
:1000C000CE0FF66E000EF7220900F5501200040064
:1000D0000100000000000000000000000000F76ABE
:1000E000EE0FF66E000EF7220900F55012004000E8
:1000F00008004000000000000000000000000000B8
:1001000000000000000000000000000000000DAE34
:1001100003D0F2CF0EF0F29EF76A300FF66E010EAA
:10012000F7220900F5500DAE02D00EBEF28E12007D
:10013000400000004000000000000000000000003F
:1001400000000000000000000000000000000000AF
:10015000F76A600FF66E010EF7220900F5501200E3
:1001600009024300020100C032090400000102023A
:1001700001000524001001042402020524060001E8
:100180000524010001070581030800FA09040100A4
:10019000020A000000070502024000FA0705820279
:1001A0004000FA00F76AB40FF66E010EF72209005C
:1001B000F55012000200F76AC60FF66E010EF72224
:1001C0000900F55012001201100102000040D8048D
:1001D0000A00000101020001F76AE80FF66E010E45
:1001E000F7220900F5501200040309040803520025
:1001F000520032001603680070006600750065004A
:100200006E0074006500580058006D9269946894FF
:10021000D5EF06F06A6A6892DEEF06F02C6A2B6A68
:10022000250E2A6E800E296E2D6A2E6A080E2F6EFC
:100230007F6B7A93316A306A7B6B7C917A81000C98
:100240009F6B9F5101080AE3036A9F51270FE96ED4
:10025000000E0320EA6EEF6A9F2BF3D7DFDF1A6AE6
:10026000010E1B6E196A000C010EA86FA8510F0831
:100270000EE3700EA825016E0F0E036ED8B0032A90
:1002800001C0E9FF03C0EAFFEF6AA82BEFD71E6A9F
:100290001D6A000C400E0401016F050E036F026B16
:1002A000880E006F046B050E076F400E066F00018D
:1002B000000C6A6A686A9F0E6B6E390E696E6E6A10
:1002C000BFDFD2DF160E706E68A602D06896FCD72C
:1002D0006D98E0DF030E1F6EE4EF06F06984689806
:1002E0006D82EAEF06F0689CF0EF06F070A002D095
:1002F000D1DF7090689AF6EF06F0A3C020F0000CF2
:10030000FF0E206E000CA16B265235E0A1513F0874
:1003100032E31C5005E0020A0DE0010A15E01ED090
:10032000036A2550F2CFA3F0F29E12DFA3BFF28E34
:10033000A26F14D0036A2550F2CFA3F0F29E4CDFD7
:10034000A3BFF28EA26F0AD0036A2550F2CFA3F0AA
:10035000F29E31DFA3BFF28EA26F00D0252A2606BF
:10036000A151A12B036A400FE96E050E0320EA6E2E
:10037000A2C0EFFFC9D7265204E1A151400801E015
:10038000196AA1C0A3F0B9DF000C256A1C6A050137
:100390000351010A000105E0030A08E0010A09E02F
:1003A0001FD0120E266E030E1C6E1CD0430E266E3E
:1003B00019D0020E1C6E036A05010251210FE96E6D
:1003C000000E0320EA6EEFCF25F0036A2550F2CF2E
:1003D000A0F0F29E000100DFA0BFF28E266E02D0D8
:1003E0008FDF0CD00501075305E12650065D02E2C0
:1003F00006C526F0010E196E000185DF18EF03F027
:10040000A05304E1040E1F6E2FDFC1D0050E1F6E36
:10041000A36F800EA26F010EA16FA1510F08D8A08B
:10042000B6D0A46B036AA151F2CFA8F0F29E47DECA
:10043000A8BFF28E000A51E0040EA46FD890A13537
:10044000036AF2CFA8F0F29E62DE0900F5CF03F056
:10045000A8BFF28EA56F03C0A6F0A151080DF350FE
:10046000010F016E040E036ED8B0032A01C0E9FF2C
:1004700003C0EAFFA5C0EFFFA151080DF350020F22
:10048000016E040E036ED8B0032A01C0E9FF03C059
:10049000EAFFA3C0ECFFED52A2C0EFFFD890A13558
:1004A000036AF2CFA8F0F29E32DE0900F5CF03F026
:1004B000A8BFF28EA2270350A323880EA76FA6B170
:1004C000A781A6B3A783A151080DF3CF01F0040EB5
:1004D00001C0E9FFEA6EA7C0EFFF036AA151F2CFA6
:1004E000A8F0F29EDCDDA8BFF28E000A31E0A48302
:1004F000A151080DF350060F016E040E036ED8B023
:10050000032A01C0E9FF03C0EAFFA3C0ECFFED52DC
:10051000A2C0EFFFD890A135036AF2CFA8F0F29EF7
:10052000DEDD0900F5CF03F0A8BFF28EA22703504D
:10053000A323A151080DF350040F016E040E036EA6
:10054000D8B0032A01C0E9FF03C0EAFF400EEF6EF6
:10055000A451060802E10E0EA46F036AA151F2CF66
:10056000A8F0F29E9CDDA8BFF28E020801E0A489EB
:10057000700EA125016E0F0E036ED8B0032A01C0C4
:10058000E9FF03C0EAFFA4C0EFFFA12B46D712EF9B
:1005900003F00501015100010DE0010A14E0020A17
:1005A0001EE0060A27E0030A2CE00E0A2BE0010AEF
:1005B0002FE03CD01BC040F50501416B020E00014D
:1005C000A36F9BDE35D00501022D06D0010E1B1650
:1005D0000001A36B92DE02D0000192DE29D005015A
:1005E000022D05D01B820001A36B87DE02D0000123
:1005F00087DE1ED0020E196E02C524F0A36B7DDECD
:1006000017D0C3D61AC040F5010EA36F76DE10D006
:1006100005010251010808E302C51AF002C5A0F065
:100620000001EED6A36B69DE000102D069DE00D0C6
:1006300090EF04F01AC0A0F005010151000105E09F
:100640000A0A0BE0010A2BE03CD00501406B416B2C
:10065000020E0001A36F51DE36D0A0531EE0010E42
:10066000A05D036AF2CFA2F0F29E9CDDA2BFF28EE3
:10067000016E0501045DD8A002D000010ED0036A0E
:100680000451270FE96E000E0320EA6EEFCF40F50C
:10069000010E0001A36F31DE01D032DE14D0A05371
:1006A0000EE0036A05010451270FE96E000E0320D6
:1006B000EA6E02C5EFFF0001A36B1FDE01D020DE52
:1006C00002D01EDE00D090EF04F0A191A0BFA18166
:1006D000A09FA1A110D0036AA051F2CFA2F0F29E78
:1006E000DEDCA2BFF28E000A02E1000E01D0010E94
:1006F000016E10D00FD0036AA051F2CFA2F0F29E8B
:10070000DEDCA2BFF28E000A02E1000E01D0010E73
:10071000016E00D0FCEF03F0A191A0BFA181A09FCA
:10072000A1A110D0A051080DF350040F016E040ECA
:10073000036ED8B0032A01C0E9FF03C0EAFF880EA8
:10074000EF6E09D0A051080DF3CF01F0040E01C0E7
:10075000E9FFEA6EEF6A0BEF04F0A191A0BFA1815F
:10076000A09FA1A110D0A051080DF350040F016E5D
:10077000040E036ED8B0032A01C0E9FF03C0EAFFEC
:10078000840EEF6E0AD0A051080DF3CF01F0040ED5
:1007900001C0E9FFEA6E840EEF6E11EF04F0A19143
:1007A000A0BFA181A09FA1A110D0A051080DF3501E
:1007B000040F016E040E036ED8B0032A01C0E9FFD6
:1007C00003C0EAFFEFCFA2F00AD0A051080DF3CF8B
:1007D00001F0040E01C0E9FFEA6EEFCFA2F0A2AF74
:1007E00002D0A2B502D0000E01D0010E016E1BEFA7
:1007F00004F004C5A0F069D7015229E005010151B8
:10080000010A000105E0020A09E0030A0DE01DD01B
:1008100004C5A0F081D7A36B70DD19D004C5A0F08A
:100820009CD7A36B6ADD13D00501406B416B04C5F7
:10083000A0F00001B4D7015204E0010E0501406FA1
:100840000001020EA36F59DD02D05ADD00D090EFF7
:1008500004F0FE0E206E000C0501042D01D002D024
:10086000045348E1015100010BE0010A0DE0210AA7
:100870001CE0010A1FE0030A2EE0010A31E037D034
:10088000010E806FE6DF35D0050EEA6E400EE96E90
:10089000E26A320EE16E080E016EE6CFEEFF012E27
:1008A000FCD706C5A3F029DD24D0020E806F7A8321
:1008B000D0DF1FD0050EEA6E400EE96EE26A290E07
:1008C000E16E070E016EE6CFEEFF012EFCD7070E9C
:1008D000A36F13DD0ED002C57FF0A36B0EDD09D030
:1008E00002C531F003C530F0A36B07DD02D008DD8F
:1008F00000D00501000190EF04F0196A05010051D4
:100900007F0B000107E0010A06E0030A05E0230A65
:1009100004E004D03ED68ED66CD79ED7F1DC00D052
:1009200075EF06F0A051080DF3CF01F0040E01C0E1
:10093000E9FFEA6EEFCFA2F0A151020806E1A2ADF5
:1009400002D0A16B02D0010EA16FA151030812E1E8
:10095000840EA26FA051080DF350040F016E040E17
:10096000036ED8B0032A01C0E9FF03C0EAFF840E7A
:10097000EF6E09D0A12D03D0C80EA26F04D0A153F1
:1009800002E1880EA26F036A010E026EA051006E92
:1009900005E0D89002360336002EFBD70250FF0A3E
:1009A000006EFF0E031A00501D1603501E16D8903D
:1009B000A035036AF2CFA5F0F29E87EC00F00900A3
:1009C000F5CF03F0A5BFF28EA36F03C0A4F0A05132
:1009D000080DF350010F016E040E036ED8B0032A08
:1009E00001C0E9FF03C0EAFFA3C0EFFFA4B1A281E9
:1009F000A4B3A283A051080DF3CF01F0040E01C0EF
:100A0000E9FFEA6EA2C0EFFF000CAC51080DF350F5
:100A1000040F016E040E036ED8B0032A01C0E9FF73
:100A200003C0EAFFEFCFB0F0B0BF5BD0AC51080D10
:100A3000F350050F016E040E036ED8B0032A01C0F7
:100A4000E9FF03C0EAFFADC0EFFFAF51020816E1B6
:100A5000AC51080DF350040F016E040E036ED8B0B4
:100A6000032A01C0E9FF03C0EAFFEFCFB0F0B0AD49
:100A700002D0AF6B02D0010EAF6F13D0AF5104089C
:100A800010E1AC51080DF3CF01F0040E01C0E9FFF5
:100A9000EA6EEFCFB0F0B0AD03D0010EAF6F01D072
:100AA000AF6BAF2D03D0C80EB06F04D0AF5302E1CF
:100AB000880EB06FAEB1B081AEB3B083AC51080D4B
:100AC000F350040F016E040E036ED8B0032A01C068
:100AD000E9FF03C0EAFFB0C0EFFF010E016E03D0D3
:100AE00000D0000E016E000C8051010A03E0030AE1
:100AF00012E022D0EA6A320EE96E050EE26EE16A79
:100B0000080E016EE6CFEEFF012EFCD7A36B7DEC45
:100B100001F0806B15D0EA6A290EE96E050EE26ECF
:100B2000E16A070E016EE6CFEEFF012EFCD7806B67
:100B3000A36B7DEC01F004D0806B4AEC01F000D097
:100B4000C2EF05F0A151080DF350010F016E040E24
:100B5000036ED8B0032A01C0E9FF03C0EAFF036AAD
:100B6000EFCF01F003C002F0BBEF05F07C817E6B9C
:100B7000020EA16FE7D701C07DF0C7EF05F0A053CB
:100B800002E1B2D714D0A051020802E1EFD70FD092
:100B9000036A010E026EA051006E05E0D890023685
:100BA0000336002EFBD702501D1203501E12000CFC
:100BB000A1C06EFFA15303E0040E1F6E02D0020E0F
:100BC0001F6EE8EF05F01A6A196A24C0A1F0F0D789
:100BD0005FEF06F0A151080DF350040F016E040EF3
:100BE000036ED8B0032A01C0E9FF03C0EAFFEFCFCC
:100BF000A9F0A9BF3FD0A151080DF350060F016E17
:100C0000040E036ED8B0032A01C0E9FF03C0EAFF57
:100C1000ECCF03F0ED52EFCFAAF003C0ABF0A86B1E
:100C2000A76BA851A55D1AE303E1A451A75D16E2E5
:100C3000A2C0E9FFA3C0EAFFEFCFAEF0ABC0EAFF6E
:100C4000AAC0E9FFAEC0EFFFAA2BD8B4AB2BA22BF2
:100C5000D8B4A32BA72BD8B4A82BE3D7A1C0ACF052
:100C6000A5C0AEF0A4C0ADF0A6C0AFF0CEDE01507E
:100C700003D000D0000E016E000C7B530DE07A9182
:100C8000020EA16FA36B3A0EA26FA56B7BC0A4F0FE
:100C9000020EA66F9FDF7B6B000C7B5302E0EDDF43
:100CA00001D07A8164EF06F0A0530AE1192C03D039
:100CB00083EC01F004D01950020801E184D704D07C
:100CC000A051020801E1E9D7000C6C309F6F9F33FF
:100CD0009F331F0E9F176C523BE1040100513C0BE8
:100CE00034081BE1046B000108D6203C05D0A06B42
:100CF000030EA16F17DE0ED0A06B020EA16F12DEE5
:100D00002050FE0807E0AC6BAE6B20C0ADF0040EC7
:100D1000AF6F7BDE6D9819D0040100513C0B0408C5
:100D200015E10001A06B2BDFA06B020EA16FFADDB5
:100D30002050FE080AE0203C01D007D0AC6BAE6B1F
:100D400020C0ADF0010EAF6F60DE040120D00001C5
:100D50006C50040812E1FF0E206EA06BA5DF203C52
:100D600001D008D0AC6BAE6B20C0ADF0020EAF6FFF
:100D70004CDE02D04AEC01F009D06CB404D09FC024
:100D8000A0F0FDDE03D09FC0A0F08EDF04010001C3
:100D9000FBEF06F01F5201E12FD068522DE068A44E
:100DA00004D069A402D005EF01F06DA201D024D0D7
:100DB00068A204D069A202D00AEF01F068A004D0B2
:100DC00069A002D059EF01F068A804D069A802D048
:100DD0006EEF01F068AC04D069AC02D073EF01F0A3
:100DE00068AA04D069AA02D076EF01F068A604D000
:100DF00069A602D06AD76896A19A2CEF00F06D6AB6
:100E0000696A080E6F6E94503009946E1F6A186AF2
:100E1000F2BE188EF29E20EC01F018BEF28E1E6A11
:100E20001D6AB6EF07F0186AF2BE188EF29E20EC2B
:100E300001F018BEF28E6D6A140E6F6E696A6D86CF
:100E4000010E1F6E27EF07F06DB601D0ECD71F2CF7
:100E50000BD06DBA09D0686A696AA08AC00EF21216
:100E6000110E696E020E1F6EB7EF07F07CB101D054
:100E7000FDD77E517E2B036A880FE96E050E032095
:100E8000EA6EEFCF8AF07D517E5D0BE37C91186AAC
:100E9000F2BE188EF29E020EA06FA16F43DD18BE47
:100EA000F28E8AC001F0BEEF07F08C91F2BE8C8109
:100EB000F29E7B513F0802E23F0E7B6F7B517B2B02
:100EC000036A3A0FE96E000E0320EA6E8BC0EFFF53
:100ED000F29E8CB1F28E7AA107D0186AF2BE188EFB
:100EE000F29ECBDE18BEF28E86EF07F07B513F08F4
:100EF0000AE27AA107D0186AF2BE188EF29EBDDE11
:100F000018BEF28EF3D78AC08BF0CFD7000CF86AE8
:100F1000D09E0D8EEA6AE96AC150C00B0F09C16EFE
:100F2000070EB46E1F6A216A040E226E0C0E236E29
:100F3000266A7B6B806B816B826B836B846B856BAA
:100F4000866B876B886BFF0E896F000E956E96908F
:100F500096929694936E8C6AC090C082C094C09E04
:100F6000C280C150C00B0B09C16E49D76DD71A5250
:100F7000D8B477D08C747CA174D078D701508A6FA4
:100F8000600806E28A517A0803E38A51DF0B01D038
:100F90008A51856F8551530864E1FF0E8A6FA6DF81
:100FA000856B85510C085AE3866B8651070854E31C
:100FB00085C08CFF85C08AFF86C08DFF0C0E016E38
:100FC000C250C30B0110C26E4F0E006E002EFED732
:100FD00000D0C282C2B2FED7C4CF84F084C08AF0EF
:100FE00085DF080E016EC250C30B0110C26E4F0E9A
:100FF000006E002EFED700D0C282C2B2FED7C4CF90
:1010000083F083C08AF072DF040E016EC250C30BFE
:101010000110C26E4F0E006E002EFED700D0C282AD
:10102000C2B2FED7C4CF82F082C08AF05FDF000E6A
:10103000016EC250C30B0110C26E4F0E006E002E27
:10104000FED700D0C282C2B2FED7C4CF81F081C029
:101050008AF04CDF862BA9D7852BA3D7FE0E8A6F8B
:0610600045DF84D7030008
:020000040030CA
:0E000000240E3E1E008381000FC00FE00F4053
:00000001FF
;PIC18F4550
