:020000040000FA
:0400000013EF08F002
:08000800056ED8CF06F0E0CF31
:1000100007F00001E9CF0DF0EACF08F0E1CF09F0D9
:10002000E2CF0AF0D9CF0BF0DACF0CF0F3CF14F017
:10003000F4CF15F0FACF16F000C00FF001C010F0A9
:1000400002C011F003C012F004C013F0A0AA2CEFFC
:1000500000F0A1BA4AEF07F00FC000F010C001F0A5
:1000600011C002F012C003F013C004F00E8E0DC0D8
:10007000E9FF08C0EAFF09C0E1FF0AC0E2FF0BC0C8
:10008000D9FF0CC0DAFF14C0F3FF15C0F4FF16C08F
:10009000FAFF055007C0E0FF06C0D8FF1000F76A5E
:1000A000AE0FF66E000EF7220900F55012000403A1
:1000B0000100000000000000000000000000F76ADE
:1000C000CE0FF66E000EF7220900F5501200040064
:1000D0000100000000000000000000000000F76ABE
:1000E000EE0FF66E000EF7220900F55012004000E8
:1000F00008004000000000000000000000000000B8
:1001000000000000000000000000000000000DAE34
:1001100003D0F2CF0EF0F29EF76A300FF66E010EAA
:10012000F7220900F5500DAE02D00EBEF28E12007D
:10013000400000004000000000000000000000003F
:1001400000000000000000000000000000000000AF
:10015000F76A600FF66E010EF7220900F5501200E3
:1001600009024300020100C032090400000102023A
:1001700001000524001001042402020524060001E8
:100180000524010001070581030800FA09040100A4
:10019000020A000000070502024000FA0705820279
:1001A0004000FA00F76AB40FF66E010EF72209005C
:1001B000F55012000200F76AC60FF66E010EF72224
:1001C0000900F55012001201100102000040D8048D
:1001D0000A00000101020001F76AE80FF66E010E45
:1001E000F7220900F5501200040309040803520025
:1001F000520032001603680070006600750065004A
:100200006E0074006500580058006D9269946894FF
:1002100055EF07F06A6A68925EEF07F02C6A2B6A66
:10022000250E2A6E800E296E2D6A2E6A080E2F6EFC
:100230007F6B7A93316A306A7B6B7C917A81000C98
:1002400002013F6B3F5101080AE3036A3F51270F48
:10025000E96E000E0320EA6EEF6A3F2BF3D7000130
:10026000DDDF1A6A010E1B6E196A000C010E020115
:10027000486F48510F080EE3700E4825016E0F0EAF
:10028000036ED8B0032A01C0E9FF03C0EAFFEF6A9A
:10029000482BEFD71E6A1D6A0001000C400E0401B6
:1002A000016F050E036F026B880E006F046B050E65
:1002B000076F400E066F0001000C6A6A686A9F0EA5
:1002C0006B6E390E696E6E6ABBDFD0DF160E706E14
:1002D00068A602D06896FCD76D98E0DF030E1F6E0B
:1002E00064EF07F0698468986D826AEF07F0689C94
:1002F00070EF07F070A002D0D1DF7090689A76EFAF
:1003000007F043C220F0000CFF0E206E000C02012B
:10031000416B26523DE041513F083AE31C50000139
:1003200005E0020A0FE0010A19E024D0036A255013
:10033000F2CF43F2F29E0CDF020143BFF28E426F16
:10034000000118D0036A2550F2CF43F2F29E44DF39
:10035000020143BFF28E426F00010CD0036A2550A8
:10036000F2CF43F2F29E27DF020143BFF28E426FCB
:10037000000100D0252A260602014151412B036AC3
:10038000400FE96E050E0320EA6E42C2EFFFC1D7AF
:10039000265204E14151400801E0196A41C243F28A
:1003A0000001AFDF000C256A1C6A05010351010A38
:1003B000000105E0030A08E0010A09E021D0120E5D
:1003C000266E030E1C6E1ED0430E266E1BD0020E30
:1003D0001C6E036A05010251210FE96E000E032015
:1003E000EA6EEFCF25F0036A2550F2CF40F2F29E7D
:1003F0000001F2DE020140BFF28E266E000102D043
:1004000083DF0CD00501075305E12650065D02E2AB
:1004100006C526F0010E196E000179DF41EF03F0E9
:100420000201405306E1040E1F6E00011FDFCED013
:100430000201050E1F6E436F800E426F010E416F69
:1004400041510F08D8A0C2D0446B036A4151F2CF8A
:1004500048F2F29E000133DE020148BFF28E000A2C
:1004600055E0040E446FD8904135036AF2CF48F24C
:10047000F29E00014CDE0900F5CF03F0020148BFF7
:10048000F28E456F03C046F24151080DF350010F43
:10049000016E040E036ED8B0032A01C0E9FF03C049
:1004A000EAFF45C2EFFF4151080DF350020F016E04
:1004B000040E036ED8B0032A01C0E9FF03C0EAFFAF
:1004C00043C2ECFFED5242C2EFFFD8904135036AC0
:1004D000F2CF48F2F29E00011ADE0900F5CF03F0D8
:1004E000020148BFF28E422703504323880E476F14
:1004F00046B1478146B347834151080DF3CF01F020
:10050000040E01C0E9FFEA6E47C2EFFF036A4151E2
:10051000F2CF48F2F29E0001C2DD020148BFF28E26
:10052000000A33E044834151080DF350060F016E79
:10053000040E036ED8B0032A01C0E9FF03C0EAFF2E
:1005400043C2ECFFED5242C2EFFFD8904135036A3F
:10055000F2CF48F2F29E0001C2DD0900F5CF03F0B0
:10056000020148BFF28E4227035043234151080D38
:10057000F350040F016E040E036ED8B0032A01C0BD
:10058000E9FF03C0EAFF400EEF6E4451060802E1A6
:100590000E0E446F036A4151F2CF48F2F29E000101
:1005A0007EDD020148BFF28E020801E04489700E30
:1005B0004125016E0F0E036ED8B0032A01C0E9FF7A
:1005C00003C0EAFF44C2EFFF412B3AD7000139EFE5
:1005D00003F00501015100010DE0010A15E0020AD6
:1005E00020E0060A2AE0030A31E00E0A30E0010AA0
:1005F00036E045D01BC040F50501416B020E0201FB
:10060000436F00017EDE3DD00501022D07D0010EB3
:100610001B160201436B000174DE02D0000174DE80
:1006200030D00501022D06D01B820201436B000170
:1006300068DE02D0000168DE24D0020E196E02C509
:1006400024F00201436B00015CDE1BD0ACD61AC063
:1006500040F5010E0201436F000153DE12D0050187
:10066000025101080AE302C51AF002C540F2000176
:10067000D7D60201436B000144DE000102D044DE04
:1006800000D0D9EF04F01AC040F205010151000179
:1006900005E00A0A0CE0010A31E045D00501406B93
:1006A000416B020E0201436F00012BDE3ED00201BE
:1006B000405321E0010E405D036AF2CF42F2F29E08
:1006C000000170DD020142BFF28E016E0501045D82
:1006D000D8A002D002010FD0036A0451270FE96E9F
:1006E000000E0320EA6EEFCF40F5010E0201436FCA
:1006F000000107DE02D0000107DE17D002014053DF
:100700000FE0036A05010451270FE96E000E032074
:10071000EA6E02C5EFFF0201436B0001F2DD02D079
:100720000001F2DD02D0F0DD00D0D9EF04F00201CB
:10073000419140BF4181409F41A112D0036A405185
:10074000F2CF42F2F29E0001AADC020142BFF28E19
:10075000000A02E1000E01D0010E016E12D011D08C
:10076000036A4051F2CF42F2F29E0001A8DC02017E
:1007700042BFF28E000A02E1000E01D0010E016EAE
:1007800000D000013AEF04F00201419140BF4181E5
:10079000409F41A110D04051080DF350040F016E4D
:1007A000040E036ED8B0032A01C0E9FF03C0EAFFBC
:1007B000880EEF6E09D04051080DF3CF01F0040E02
:1007C00001C0E9FFEA6EEF6A000149EF04F002019F
:1007D000419140BF4181409F41A110D04051080D3F
:1007E000F350040F016E040E036ED8B0032A01C04B
:1007F000E9FF03C0EAFF840EEF6E0AD04051080DF6
:10080000F3CF01F0040E01C0E9FFEA6E840EEF6E33
:10081000000151EF04F00201419140BF4181409F2E
:1008200041A110D04051080DF350040F016E040E89
:10083000036ED8B0032A01C0E9FF03C0EAFFEFCF7F
:1008400042F20AD04051080DF3CF01F0040E01C06E
:10085000E9FFEA6EEFCF42F242AF02D042B502D0DA
:10086000000E01D0010E016E00015DEF04F004C521
:1008700040F25DD701522EE005010151010A00014D
:1008800005E0020A0BE0030A11E022D004C540F2A1
:100890007BD70201436B000134DD1CD004C540F25C
:1008A00096D70201436B00012CDD14D00501406B8B
:1008B000416B04C540F20001AED7015203E0010EC6
:1008C0000501406F020E0201436F00011ADD02D0E4
:1008D0001BDD00D0D9EF04F0FE0E206E000C0501E8
:1008E000042D01D002D004534EE1015100010BE070
:1008F000010A0DE0210A1CE0010A1FE0030A30E0B2
:10090000010A35E03DD0010E806FE6DF3BD0050ED9
:10091000EA6E400EE96EE26A320EE16E080E016E7A
:10092000E6CFEEFF012EFCD706C543F2EADC2AD063
:10093000020E806F7A83D0DF25D0050EEA6E400E5E
:10094000E96EE26A290EE16E070E016EE6CFEEFF58
:10095000012EFCD7070E0201436F0001D2DC12D03A
:1009600002C57FF00201436B0001CBDC0BD002C556
:1009700031F003C530F00201436B0001C2DC02D04C
:10098000C3DC00D005010001D9EF04F0196A0501AC
:1009900000517F0B000107E0010A06E0030A05E0B1
:1009A000230A04E004D015D66ED661D798D7ACDC04
:1009B00000D0E3EF06F002014051080DF3CF01F043
:1009C000040E01C0E9FFEA6EEFCF42F24151020886
:1009D00006E142AD02D0416B02D0010E416F4151A0
:1009E000030812E1840E426F4051080DF350040FCA
:1009F000016E040E036ED8B0032A01C0E9FF03C0E4
:100A0000EAFF840EEF6E09D0412D03D0C80E426F6D
:100A100004D0415302E1880E426F036A010E026E58
:100A20004051006E05E0D89002360336002EFBD709
:100A30000250FF0A006EFF0E031A00501D160350ED
:100A40001E16D8904035036AF2CF45F2F29E00019F
:100A500087EC00F00900F5CF03F0020145BFF28EEC
:100A6000436F03C044F24051080DF350010F016E73
:100A7000040E036ED8B0032A01C0E9FF03C0EAFFE9
:100A800043C2EFFF44B1428144B342834051080D59
:100A9000F3CF01F0040E01C0E9FFEA6E42C2EFFF9E
:100AA0000001000C02014C51080DF350040F016EBF
:100AB000040E036ED8B0032A01C0E9FF03C0EAFFA9
:100AC000EFCF50F250BF5BD04C51080DF350050FE3
:100AD000016E040E036ED8B0032A01C0E9FF03C003
:100AE000EAFF4DC2EFFF4F51020816E14C51080DCD
:100AF000F350040F016E040E036ED8B0032A01C038
:100B0000E9FF03C0EAFFEFCF50F250AD02D04F6BC8
:100B100002D0010E4F6F13D04F51040810E14C5119
:100B2000080DF3CF01F0040E01C0E9FFEA6EEFCF2C
:100B300050F250AD03D0010E4F6F01D04F6B4F2DCF
:100B400003D0C80E506F04D04F5302E1880E506F8F
:100B50004EB150814EB350834C51080DF350040FE9
:100B6000016E040E036ED8B0032A01C0E9FF03C072
:100B7000EAFF50C2EFFF010E016E03D000D0000E5D
:100B8000016E0001000C8051010A03E0030A14E029
:100B900026D0EA6A320EE96E050EE26EE16A080EB0
:100BA000016EE6CFEEFF012EFCD70201436B000180
:100BB00081EC01F0806B17D0EA6A290EE96E050E10
:100BC000E26EE16A070E016EE6CFEEFF012EFCD762
:100BD000806B0201436B000181EC01F004D0806B5B
:100BE0004EEC01F000D01BEF06F002014151080D60
:100BF000F350010F016E040E036ED8B0032A01C03A
:100C0000E9FF03C0EAFF036AEFCF01F003C002F07F
:100C1000000112EF06F07C817E6B020E0201416F33
:100C20000001E3D701C07DF022EF06F0020140533E
:100C300004E10001A8D717D002014051020804E1E5
:100C40000001E9D710D00201036A010E026E405183
:100C5000006E05E0D89002360336002EFBD7025016
:100C60001D1203501E120001000C41C26EFF020152
:100C7000415303E0040E1F6E02D0020E1F6E0001EE
:100C800047EF06F01A6A196A24C041F2EED7C8EF9E
:100C900006F002014151080DF350040F016E040EDD
:100CA000036ED8B0032A01C0E9FF03C0EAFFEFCF0B
:100CB00049F249BF41D04151080DF350060F016E72
:100CC000040E036ED8B0032A01C0E9FF03C0EAFF97
:100CD000ECCF03F0ED52EFCF4AF203C04BF2486B7A
:100CE000476B4851455D1AE303E14451475D16E205
:100CF00042C2E9FF43C2EAFFEFCF4EF24BC2EAFF26
:100D00004AC2E9FF4EC2EFFF4A2BD8B44B2B422B0D
:100D1000D8B4432B472BD8B4482BE3D741C24CF26D
:100D200045C24EF244C24DF246C24FF20001BADE55
:100D3000015004D000D00201000E016E0001000C31
:100D40007B530FE07A91020E0201416F436B3A0E22
:100D5000426F456B7BC044F2020E466F000199DF83
:100D60007B6B000C7B5302E0EBDF01D07A81CFEF8D
:100D700006F0020140530EE1192C05D0000187EC6A
:100D800001F006D002011950020803E100017AD7F0
:100D9000020106D04051020803E10001E3D702013D
:100DA0000001000C6C3002013F6F3F333F331F0ED8
:100DB0003F176C5246E1040100513C0B340821E11D
:100DC000046B0001E3D5203C07D00201406B030E09
:100DD000416F0001F0DD12D00201406B020E416F45
:100DE0000001E9DD2050FE0809E002014C6B4E6B6A
:100DF00020C04DF2040E4F6F000154DE6D981ED0DE
:100E0000040100513C0B04081AE10201406B00018F
:100E10000DDF0201406B020E416F0001CCDD20505E
:100E2000FE080CE0203C01D009D002014C6B4E6B57
:100E300020C04DF2010E4F6F000134DE040127D0B7
:100E400002016C50040816E1FF0E206E406B000199
:100E500090DF203C01D00AD002014C6B4E6B20C0C9
:100E60004DF2020E4F6F00011DDE02D04EEC01F07C
:100E70000DD002016CB406D03FC240F20001D6DEB4
:100E800005D002013FC240F2000173DF04010001FE
:100E90007BEF07F01F5201E12FD068522DE068A4CC
:100EA00004D069A402D005EF01F06DA201D024D0D6
:100EB00068A204D069A202D00AEF01F068A004D0B1
:100EC00069A002D05DEF01F068A804D069A802D043
:100ED00072EF01F068AC04D069AC02D077EF01F09A
:100EE00068AA04D069AA02D07AEF01F068A604D0FB
:100EF00069A602D057D76896A19A2CEF00F06D6AC8
:100F0000696A080E6F6E945030090201946E1F6A70
:100F1000186AF2BE188EF29E000120EC01F018BE95
:100F2000F28E1E6A1D6AF8EF09F0186AF2BE188E7A
:100F3000F29E20EC01F018BEF28E6D6A140E6F6EF8
:100F4000696A6D86010E1F6EA9EF07F06DB601D0BC
:100F5000ECD71F2C0BD06DBA09D0686A696AA08AD9
:100F6000C00EF212110E696E020E1F6EF9EF09F03B
:100F70007CB101D0FDD77E517E2B036A880FE96ECC
:100F8000050E0320EA6EEFCF29F2020100017D5128
:100F90007E5D0DE37C91186AF2BE188EF29E020E01
:100FA0000201406F416F000106DD18BEF28E0201A2
:100FB00029C201F00001FFEF09F002012C91F2BEFD
:100FC0002C81F29E00017B513F0802E23F0E7B6FB5
:100FD0007B517B2B036A3A0FE96E000E0320EA6E09
:100FE0002BC2EFFFF29E02012CB1F28E00017AA11A
:100FF00007D0186AF2BE188EF29EA2DE18BEF28EDC
:1010000012EF08F07B513F080AE27AA107D0186A74
:10101000F2BE188EF29E94DE18BEF28EF3D72AC26C
:101020002BF2CBD7000CF86AD09E0D8EEA6AE96AE3
:10103000C150C00B0F09C16E070EB46E1F6A216A42
:10104000040E226E0C0E236E266A7B6B806B816B06
:10105000826B836B846B856B866B876B886B896B0C
:101060008A6B8B6B8C6B8D6B8E6B8F6B906B916BBC
:10107000926B936B946B956B966B976B986B996B6C
:101080009A6B9B6B9C6B9D6B9E6B9F6BA06BA16B1C
:10109000A26BA36BA46BA56BA66BA76BA86BA96BCC
:1010A000AA6BAB6BAC6BAD6BAE6BAF6BB06BB16B7C
:1010B000B26BB36BB46BB56BB66BB76BB86BB96B2C
:1010C000BA6BBB6BBC6BBD6BBE6BBF6BC06BC16BDC
:1010D000C26BC36BC46BC56BC66BC76BC86BC96B8C
:1010E000CA6BCB6BCC6BCD6BCE6BCF6BD06BD16B3C
:1010F000D26BD36BD46BD56BD66BD76BD86BD96BEC
:10110000DA6BDB6BDC6BDD6BDE6BDF6BE06BE16B9B
:10111000E26BE36BE46BE56BE66BE76BE86BE96B4B
:10112000EA6BEB6BEC6BED6BEE6BEF6BF06BF16BFB
:10113000F26BF36BF46BF56BF66BF76BF86BF96BAB
:10114000FA6BFB6BFC6BFD6BFE6BFF6B0101006BC5
:10115000016B026B036B046B056B066B076B086B13
:10116000096B0A6B0B6B0C6B0D6B0E6B0F6B106BC3
:10117000116B126B136B146B156B166B176B186B73
:10118000196B1A6B1B6B1C6B1D6B1E6B1F6B206B23
:10119000216B226B236B246B256B266B276B286BD3
:1011A000296B2A6B2B6B2C6B2D6B2E6B2F6B306B83
:1011B000316B326B336B346B356B366B376B386B33
:1011C000396B3A6B3B6B3C6B3D6B3E6B3F6B406BE3
:1011D000416B426B436B446B456B466B476B486B93
:1011E000496B4A6B4B6B4C6B4D6B4E6B4F6B506B43
:1011F000516B526B536B546B556B566B576B586BF3
:10120000596B5A6B5B6B5C6B5D6B5E6B5F6B606BA2
:10121000616B626B636B646B656B666B676B686B52
:10122000696B6A6B6B6B6C6B6D6B6E6B6F6B706B02
:10123000716B726B736B746B756B766B776B786BB2
:10124000796B7A6B7B6B7C6B7D6B7E6B7F6B806B62
:10125000816B826B836B846B856B866B876B886B12
:10126000896B8A6B8B6B8C6B8D6B8E6B8F6B906BC2
:10127000916B926B936B946B956B966B976B986B72
:10128000996B9A6B9B6B9C6B9D6B9E6B9F6BA06B22
:10129000A16BA26BA36BA46BA56BA66BA76BA86BD2
:1012A000A96BAA6BAB6BAC6BAD6BAE6BAF6BB06B82
:1012B000B16BB26BB36BB46BB56BB66BB76BB86B32
:1012C000B96BBA6BBB6BBC6BBD6BBE6BBF6BC06BE2
:1012D000C16BC26BC36BC46BC56BC66BC76BC86B92
:1012E000C96BCA6BCB6BCC6BCD6BCE6BCF6BD06B42
:1012F000D16BD26BD36BD46BD56BD66BD76BD86BF2
:10130000D96BDA6BDB6BDC6BDD6BDE6BDF6BE06BA1
:10131000E16BE26BE36BE46BE56BE66BE76BE86B51
:10132000E96BEA6BEB6BEC6BED6BEE6BEF6BF06B01
:10133000F16BF26BF36BF46BF56BF66BF76BF86BB1
:10134000F96BFA6BFB6BFC6BFD6BFE6BFF6B0201C9
:10135000006B016B026B036B046B056B066B076B19
:10136000086B096B0A6B0B6B0C6B0D6B0E6B0F6BC9
:10137000106B116B126B136B146B156B166B176B79
:10138000186B196B1A6B1B6B1C6B1D6B1E6B1F6B29
:10139000206B216B226B236B246B256B266B276BD9
:1013A000286B000E956E969096929694936E8C6A2A
:1013B0000001886B876B8851010810E303E18751B6
:1013C0009F080CE3890E8725E96E000E8821EA6EDE
:1013D00087C0EFFF872BD8B4882BEDD7C090C08291
:1013E000C094C09EC280C150C00B0B09C16E87D58E
:1013F000ADD51A52D8B4B9D07CA1B7D0B9D501C0F7
:1014000029F202010150600806E229517A0803E33B
:101410002951DF0B01D029510001856F85515308F7
:10142000D8A4A3D08C8EFF0E02012A6F0001EADD42
:10143000886B876B8851010813E303E187519F088C
:101440000FE3890E8725E96E000E8821EA6EEFCF43
:1014500029F229C22AF2D6DD872BD8B4882BEAD705
:10146000FE0E02012A6F0001CDDD886B876B856B54
:1014700085510C08D8A078D0866B8651070872E396
:1014800085C08AFF86C08DFF0C0E016EC250C30B53
:101490000110C26E4F0E006E002EFED700D0C28229
:1014A000C2B2FED7C4CF84F0890E8725E96E000E44
:1014B0008821EA6E84C0EFFF872BD8B4882B080EF2
:1014C000016EC250C30B0110C26E4F0E006E002E93
:1014D000FED700D0C282C2B2FED7C4CF83F0890E3D
:1014E0008725E96E000E8821EA6E83C0EFFF872B07
:1014F000D8B4882B040E016EC250C30B0110C26E0B
:101500004F0E006E002EFED700D0C282C2B2FED7B0
:10151000C4CF82F0890E8725E96E000E8821EA6E1D
:1015200082C0EFFF872BD8B4882B000E016EC2500B
:10153000C30B0110C26E4F0E006E002EFED700D0FE
:10154000C282C2B2FED7C4CF81F0890E8725E96E70
:10155000000E8821EA6E81C0EFFF872BD8B4882B5C
:0E156000862B8BD7852B84D78C9E42D7030019
:020000040030CA
:0E000000240E3E1E008381000FC00FE00F4053
:00000001FF
;PIC18F4550
